:100000000C9435000C945D000C945D000C945D0024
:100010000C945D000C945D000C945D000C945D00EC
:100020000C945D000C945D000C945D000C945D00DC
:100030000C945D000C945D000C945D000C945D00CC
:100040000C94C5030C945D000C948C000C94DA00A5
:100050000C945D000C945D000C945D000C945D00AC
:100060000C945D000C945D00460211241FBECFEF7E
:10007000D8E0DEBFCDBF11E0A0E0B1E0E8E1FAE0FA
:1000800002C005900D92A231B107D9F711E0A2E1AB
:10009000B1E001C01D92A53CB107E1F710E0CAE64E
:1000A000D0E004C02297FE010E940605C836D107A1
:1000B000C9F70E947C000C945F000C940000F89437
:1000C0000C940A0582E00E94A104BC018AE991E037
:1000D0004AE050E00E94A6036CED75E080E090E0FD
:1000E0000E940D0408958AE991E040E052EC61E03D
:1000F00070E00E9415010895CF93DF930E9466047B
:100100000E947300C7ECD0E00E9462002097E1F3E8
:100110000E94C700F9CF08951F920F920FB60F9259
:1001200011242F933F934F938F939F93EF93FF93BC
:100130008091C00082FD1DC04091C60020915201F7
:10014000309153012F5F3F4F2F73307080915401D6
:10015000909155012817390771F0E0915201F09103
:100160005301EE5EFE4F40833093530120935201C2
:1001700002C08091C600FF91EF919F918F914F91A6
:100180003F912F910F900FBE0F901F901895E09107
:10019000A601F091A701E05CFF4F81919191208130
:1001A0003181821B930B8F739070892B11F00E9409
:1001B0008B0008951F920F920FB60F9211242F9368
:1001C0003F938F939F93EF93FF93209196013091EC
:1001D000970180919801909199012817390731F47E
:1001E0008091C1008F7D8093C10014C0E09198017F
:1001F000F0919901EA5AFE4F2081809198019091E7
:10020000990101968F739070909399018093980152
:100210002093C600FF91EF919F918F913F912F9175
:100220000F900FBE0F901F901895AF92BF92DF9264
:10023000EF92FF920F931F93CF93DF93EC017A011C
:100240008B01DD24403081EE580780E0680780E0B4
:10025000780711F0DD24D39491E0A92EB12CEC891C
:10026000FD89DD2069F0C50108A002C0880F991F33
:100270000A94E2F7808360E079E08DE390E005C0C6
:10028000108260E874E88EE190E0A80197010E9476
:10029000E2042150304040405040569547953795F4
:1002A000279580E12030380720F0DD2011F0DD2493
:1002B000D6CFE889F9893083EA89FB89208319A29E
:1002C000EE89FF89408121E030E0C9010C8C02C039
:1002D000880F991F0A94E2F7482B4083EE89FF8923
:1002E0004081C9010D8C02C0880F991F0A94E2F762
:1002F000482B4083EE89FF894081C9010E8C02C0E2
:10030000880F991F0A94E2F7482B4083EE89FF89F2
:1003100080810F8C02C0220F331F0A94E2F72095D0
:1003200028232083DF91CF911F910F91FF90EF90B1
:10033000DF90BF90AF900895DC011C96ED91FC9189
:100340001D97E05CFF4F2191319180819181281BA5
:10035000390B2F733070C9010895DC011C96ED91A3
:10036000FC911D97E05CFF4F20813181E054F0400B
:10037000DF01AE5BBF4F8D919C9111972817390714
:1003800019F42FEF3FEF07C08D919C91E80FF91FF3
:100390008081282F30E0C9010895DC011C96ED9181
:1003A000FC911D97E05CFF4F20813181E054F040CB
:1003B000DF01AE5BBF4F8D919C91119728173907D4
:1003C00019F42FEF3FEF10C08D919C911197E80F1A
:1003D000F91F20818D919C91119701968F739070D8
:1003E00011969C938E9330E0C9010895DC0191969B
:1003F0008C919197882339F05496ED91FC91559703
:10040000808186FFF9CF91961C920895CF93DF9358
:10041000EC01EE85FF85E05CFF4F20813181E054E7
:10042000F0402F5F3F4F2F733070DF01AE5BBF4F47
:100430008D919C91119728173907D1F3E05CFF4FFC
:1004400080819181E054F040E80FF91F6083EE85D0
:10045000FF85E05CFF4F31832083EE89FF89208197
:1004600081E090E00F8C02C0880F991F0A94E2F798
:10047000282B208381E089A3EC89FD898081806419
:10048000808381E090E0DF91CF91089510929D01EB
:1004900010929C0188EE93E0A0E0B0E080939E0172
:1004A00090939F01A093A001B093A10185E091E0FA
:1004B00090939B0180939A0182E191E09093A70130
:1004C0008093A60186E591E09093A9018093A8010D
:1004D00085EC90E09093AB018093AA0184EC90E0CE
:1004E0009093AD018093AC0180EC90E09093AF01CC
:1004F0008093AE0181EC90E09093B1018093B001C4
:1005000082EC90E09093B3018093B20186EC90E08E
:100510009093B5018093B40184E08093B60183E0A9
:100520008093B70187E08093B80185E08093B9019B
:1005300081E08093BA010895CF92DF92EF92FF920B
:100540000F931F93CF93DF937C016B018A01C0E06F
:10055000D0E00FC0D6016D916D01D701ED91FC91F6
:100560000190F081E02DC7010995C80FD91F0150F6
:1005700010400115110571F7CE01DF91CF911F9148
:100580000F91FF90EF90DF90CF900895EF92FF9240
:100590000F931F938C01DC01ED91FC910190F08190
:1005A000E02D6DE009957C01D801ED91FC91019061
:1005B000F081E02DC8016AE009959C012E0D3F1DD8
:1005C000C9011F910F91FF90EF900895CF93DF9392
:1005D000EC016115710519F420E030E00FC0DB017A
:1005E0000D900020E9F71197A61BB70BE881F98160
:1005F0000280F381E02DAD0109959C01C901DF91D5
:10060000CF9108954F925F927F928F929F92AF9277
:10061000BF92CF92DF92EF92FF920F931F93DF93DF
:10062000CF93CDB7DEB7A1970FB6F894DEBF0FBE5C
:10063000CDBF2C01742ECB01223008F42AE019A280
:1006400031E2C32ED12CCC0EDD1E822E9924AA2499
:10065000BB24672D752FA50194010E94E204790146
:100660008A01C801B701A50194010E94C304472D66
:10067000461B0894C108D1084A3010F4405D01C0FF
:10068000495CF6014083E114F1040105110521F0F4
:100690007E2C5F2DC801DDCFC201B6010E94E602AB
:1006A000A1960FB6F894DEBF0FBECDBFCF91DF91FC
:1006B0001F910F91FF90EF90DF90CF90BF90AF9080
:1006C0009F908F907F905F904F900895CF92DF9290
:1006D000EF92FF920F931F93CF93DF93EC016A0188
:1006E0007B012115310541F4E881F9810190F08108
:1006F000E02D642F09951FC02A303105D1F477FF12
:1007000017C0E881F9810190F081E02D6DE2099533
:100710008C0144275527BA014C195D096E097F09E0
:10072000CE012AE00E9402039801280F391F04C05D
:100730002AE00E9402039C01C901DF91CF911F9121
:100740000F91FF90EF90DF90CF900895CF92DF92BE
:10075000EF92FF920F931F936C017B019A01002788
:10076000F7FC0095102FB801A7010E9466038C01C9
:10077000C6010E94C602080F191FC8011F910F91E0
:10078000FF90EF90DF90CF9008951F920F920FB6D9
:100790000F9211242F933F938F939F93AF93BF9307
:1007A0008091C0019091C101A091C201B091C3019B
:1007B0003091C4010196A11DB11D232F2D5F2D374E
:1007C00020F02D570196A11DB11D2093C4018093E7
:1007D000C0019093C101A093C201B093C301809165
:1007E000BC019091BD01A091BE01B091BF010196E5
:1007F000A11DB11D8093BC019093BD01A093BE01CA
:10080000B093BF01BF91AF919F918F913F912F9175
:100810000F900FBE0F901F9018959B01AC017FB7F2
:10082000F8948091BC019091BD01A091BE01B0915E
:10083000BF0166B5A89B05C06F3F19F00196A11DC9
:10084000B11D7FBFBA2FA92F982F8827860F911D22
:10085000A11DB11D62E0880F991FAA1FBB1F6A95D9
:10086000D1F7BC012DC0FFB7F8948091BC019091E5
:10087000BD01A091BE01B091BF01E6B5A89B05C026
:10088000EF3F19F00196A11DB11DFFBFBA2FA92F8F
:10089000982F88278E0F911DA11DB11DE2E0880FB2
:1008A000991FAA1FBB1FEA95D1F7861B970B885E7D
:1008B0009340C8F2215030404040504068517C4F36
:1008C000211531054105510571F60895789484B5D7
:1008D000826084BD84B5816084BD85B5826085BD3C
:1008E00085B5816085BDEEE6F0E080818160808322
:1008F000E1E8F0E010828081826080838081816005
:100900008083E0E8F0E0808181608083E1EBF0E0CB
:10091000808184608083E0EBF0E08081816080836F
:10092000EAE7F0E080818460808380818260808358
:100930008081816080838081806880831092C10083
:100940000895982F8E3008F09E5097708091000186
:100950008295880F880F807C892B80937C00809102
:100960007A00806480937A0080917A0086FDFCCFC3
:100970002091780040917900942F80E030E0282B7E
:10098000392BC9010895629FD001739FF001829FA6
:10099000E00DF11D649FE00DF11D929FF00D839F0E
:1009A000F00D749FF00D659FF00D9927729FB00DAB
:1009B000E11DF91F639FB00DE11DF91FBD01CF01BE
:1009C00011240895A1E21A2EAA1BBB1BFD010DC024
:1009D000AA1FBB1FEE1FFF1FA217B307E407F507EF
:1009E00020F0A21BB30BE40BF50B661F771F881FCB
:1009F000991F1A9469F760957095809590959B0161
:100A0000AC01BD01CF010895EE0FFF1F0590F491D9
:080A1000E02D0994F894FFCFDA
:100A1800010000000006029C029C01CD01AD01F618
:020A28000100CB
:00000001FF
