:100000000C9462000C94D2000C94FF000C948A00B3
:100010000C948A000C948A000C948A000C94E703D8
:100020000C948A000C948A000C948A000C948A0028
:100030000C948A000C948A000C948A000C948A0018
:100040000C942C010C948A000C94A3020C948A004A
:100050000C948A000C948A000C948A000C948A00F8
:100060000C948A000C948A000000000024002700F1
:100070002A0000000000250028002B0000000000DE
:1000800023002600290004040404040404040202DA
:100090000202020203030303030301020408102007
:1000A0004080010204081020010204081020000012
:1000B0000007000201000003040600000000000029
:1000C0000000550311241FBECFEFD8E0DEBFCDBF27
:1000D00011E0A0E0B1E0E6EFF8E002C005900D927B
:1000E000A631B107D9F711E0A6E1B1E001C01D9238
:1000F000A33CB107E1F710E0C4ECD0E004C02297C4
:10010000FE010E947504C23CD107C9F70E94CB00D2
:100110000C9479040C9400008091000190910101ED
:100120000196909301018093000165E070E00E94C8
:100130004C04892B59F48AE061E00E944F0281E06F
:1001400090E0909301018093000104C08AE060E098
:100150000E944F0283E00E94070290931701809350
:100160001601873491051CF088E061E002C088E048
:1001700060E00E944F0264EF71E080E090E00E9436
:100180007401089588E061E00E9429028AE061E03C
:100190000E94290208950E94CD010E94C2000E947F
:1001A0008C00FDCF1F920F920FB60F9211242F9348
:1001B0003F934F935F936F937F938F939F93AF93EF
:1001C000BF93EF93FF938091180190911901892BB0
:1001D00029F0E0911801F09119010995FF91EF9133
:1001E000BF91AF919F918F917F916F915F914F914F
:1001F0003F912F910F900FBE0F901F9018951F9257
:100200000F920FB60F9211242F933F934F935F934A
:100210006F937F938F939F93AF93BF93EF93FF93CE
:1002200080911A0190911B01892B29F0E0911A010C
:10023000F0911B010995FF91EF91BF91AF919F91B3
:100240008F917F916F915F914F913F912F910F907F
:100250000FBE0F901F9018951F920F920FB60F921E
:1002600011242F933F938F939F93AF93BF938091CC
:10027000200190912101A0912201B09123013091A0
:1002800024010196A11DB11D232F2D5F2D3720F0D4
:100290002D570196A11DB11D2093240180932001AB
:1002A00090932101A0932201B093230180911C011E
:1002B00090911D01A0911E01B0911F010196A11DF9
:1002C000B11D80931C0190931D01A0931E01B0935A
:1002D0001F01BF91AF919F918F913F912F910F90EF
:1002E0000FBE0F901F9018959B01AC017FB7F8943B
:1002F00080911C0190911D01A0911E01B0911F01E0
:1003000066B5A89B05C06F3F19F00196A11DB11DF0
:100310007FBFBA2FA92F982F8827860F911DA11D67
:10032000B11D62E0880F991FAA1FBB1F6A95D1F704
:10033000BC012DC0FFB7F89480911C0190911D0164
:10034000A0911E01B0911F01E6B5A89B05C0EF3F2B
:1003500019F00196A11DB11DFFBFBA2FA92F982F2B
:1003600088278E0F911DA11DB11DE2E0880F991FF6
:10037000AA1FBB1FEA95D1F7861B970B885E934097
:10038000C8F2215030404040504068517C4F211508
:1003900031054105510571F60895789484B5826060
:1003A00084BD84B5816084BD85B5826085BD85B519
:1003B000816085BDEEE6F0E0808181608083E1E8C8
:1003C000F0E0808182608083808181608083E0E8CA
:1003D000F0E0808181608083E1EBF0E080818460E7
:1003E0008083E0EBF0E0808181608083EAE7F0E0E9
:1003F000808184608083808182608083808181604D
:1004000080838081806880831092C1000895982F36
:100410008E3008F09E509770809102018295880F6F
:10042000880F807C892B80937C0080917A00806487
:1004300080937A0080917A0086FDFCCF209178002D
:1004400040917900942F80E030E0282B392BC901AE
:100450000895482F50E0CA0186569F4FFC01249111
:100460004A575F4FFA0184918823C1F0E82FF0E0EA
:10047000EE0FFF1FE859FF4FA591B491662341F499
:100480009FB7F8948C91209582238C939FBF0895F9
:100490009FB7F8948C91822B8C939FBF0895482F1F
:1004A00050E0CA0182559F4FFC012491CA01865633
:1004B0009F4FFC0134914A575F4FFA019491992361
:1004C00009F440C0222331F1233021F480918000CF
:1004D0008F7705C0243031F4809180008F7D809328
:1004E000800018C0213019F484B58F7704C0223001
:1004F00021F484B58F7D84BD0DC0263021F4809118
:10050000B0008F7705C0273029F48091B0008F7D2F
:100510008093B000E92FF0E0EE0FFF1FEE58FF4F81
:10052000A591B491662341F49FB7F8948C913095CE
:1005300083238C939FBF08959FB7F8948C91832B4E
:100540008C939FBF08951F920F920FB60F921124A4
:100550002F933F934F935F936F937F938F939F93CB
:10056000AF93BF93EF93FF934091C600E091A50135
:10057000F091A601CF01019660E870E00E944C0462
:100580009C018091A7019091A8012817390739F0A3
:10059000EB5DFE4F40833093A6012093A501FF91B0
:1005A000EF91BF91AF919F918F917F916F915F91EB
:1005B0004F913F912F910F900FBE0F901F90189564
:1005C000DC011296ED91FC911397E058FF4F819159
:1005D000919180589F4F20813181821B930B60E85D
:1005E00070E00E944C040895DC011296ED91FC919C
:1005F0001397EE57FF4F2081318192918291E058FD
:10060000F0408217930719F42FEF3FEF05C0E20F78
:10061000F31F8081282F30E0C9010895CF93DF9325
:10062000DC011296ED91FC911397EF01CE57DF4F4D
:1006300048815981E058FF4F80819181E058F04016
:100640008417950719F42FEF3FEF0CC0E40FF51F47
:100650002081CA01019660E870E00E944C049983F1
:10066000888330E0C901DF91CF910895DC011296B3
:10067000ED91FC911397EE57FF4F808191819293FA
:1006800082930895FC01A085B18521898C9190E029
:10069000022E02C0959587950A94E2F780FFF6CF67
:1006A0000484F585E02D6083089587E091E09093C0
:1006B000AA018093A90185E291E09093AC01809317
:1006C000AB0185EC90E09093AE018093AD0184EC9A
:1006D00090E09093B0018093AF0180EC90E0909314
:1006E000B2018093B10181EC90E09093B4018093CA
:1006F000B30186EC90E09093B6018093B50184E05D
:100700008093B70183E08093B80187E08093B901BB
:1007100085E08093BA0181E08093BB0108950F9337
:100720001F93CF93DF938C01EB0109C02196D80171
:10073000ED91FC910190F081E02DC801099568814F
:100740006623A1F7DF91CF911F910F910895EF924A
:10075000FF920F931F93CF93DF938C017B01EA01EC
:100760000CC0D7016D917D01D801ED91FC910190F4
:10077000F081E02DC80109952197209791F7DF912D
:10078000CF911F910F91FF90EF900895813041F02C
:10079000813018F08230D1F409C010926E000895B3
:1007A00080916F008D7F80936F000895809170001D
:1007B0008D7F8093700081E08093B0008091B100C4
:1007C000887F84608093B1001092B30008951F92D7
:1007D0000F920FB60F9211242F933F934F935F9375
:1007E0006F937F938F939F93AF93BF93EF93FF93F9
:1007F0008091BC019091BD01A091BE01B091BF015B
:100800000097A105B10551F1E091C001F091C1013E
:1008100080819091C201892780838091BC01909151
:10082000BD01A091BE01B091BF01181619061A06AC
:100830001B060CF58091BC019091BD01A091BE01F9
:10084000B091BF010197A109B1098093BC019093B8
:10085000BD01A093BE01B093BF010DC082E00E9414
:10086000C603E091C001F091C10190818091C20165
:10087000809589238083FF91EF91BF91AF919F91E4
:100880008F917F916F915F914F913F912F910F9039
:100890000FBE0F901F90189597FB092E07260AD0C0
:1008A00077FD04D00CD006D000201AF47095619525
:1008B0007F4F0895F6F7909581959F4F0895AA1B55
:1008C000BB1B51E107C0AA1FBB1FA617B70710F03B
:1008D000A61BB70B881F991F5A95A9F7809590956D
:1008E000BC01CD010895EE0FFF1F0590F491E02D9E
:0608F0000994F894FFCF0B
:1008F6000100010000000042038F03A703E0020E7F
:06090600033603F40200B9
:00000001FF
